:020000040000FA
:100000000C945C000C944D010C9426010C94790026
:100010000C9479000C9479000C9479000C9479007C
:100020000C9479000C9479000C9479000C9479006C
:100030000C9479000C9479000C9479000C9479005C
:100040000C94DC000C9479000C9479000C947900E9
:100050000C9479000C9479000C9479000C9479003C
:100060000C9479000C947900000000002400270013
:100070002A0000000000250028002B0004040404CE
:100080000404040402020202020203030303030342
:10009000010204081020408001020408102001021F
:1000A00004081020000000080002010000030407FB
:1000B000000000000000000011241FBECFEFD8E0B8
:1000C000DEBFCDBF11E0A0E0B1E0E2E1F5E002C0AB
:1000D00005900D92A430B107D9F721E0A4E0B1E07A
:1000E00001C01D92AF30B207E1F70E9474010C9479
:1000F00087020C940000E7EAF0E02491E3E9F0E0E5
:100100009491EFE7F0E0E491EE23C9F0222339F077
:10011000233001F1A8F4213019F1223029F1F0E067
:10012000EE0FFF1FEE58FF4FA591B4912FB7F89433
:10013000EC91811126C090959E239C932FBF08952A
:100140002730A9F02830C9F0243049F720918000E9
:100150002F7D03C0209180002F7720938000DFCF78
:1001600024B52F7724BDDBCF24B52F7DFBCF209185
:10017000B0002F772093B000D2CF2091B0002F7D18
:10018000F9CF9E2BDACF089580910D0190910E0149
:100190008230910538F0880F991F880F991F0597B5
:1001A0000197F1F781E00E947B008BE99FE00197C6
:1001B000F1F780E00C947B001F920F920FB60F9224
:1001C00011242F933F938F939F93AF93BF9380916D
:1001D000090190910A01A0910B01B0910C0130919D
:1001E000080123E0230F2D3758F50196A11DB11DFD
:1001F000209308018093090190930A01A0930B01B9
:10020000B0930C018091040190910501A091060129
:10021000B09107010196A11DB11D80930401909337
:100220000501A0930601B0930701BF91AF919F9183
:100230008F913F912F910F900FBE0F901F901895A7
:1002400026E8230F0296A11DB11DD2CF1F920F9257
:100250000FB60F9211242F933F934F935F936F9399
:100260007F938F939F93AF93BF93EF93FF93E0910F
:100270000201F09103010995FF91EF91BF91AF91B8
:100280009F918F917F916F915F914F913F912F91AE
:100290000F900FBE0F901F9018951F920F920FB6E0
:1002A0000F9211242F933F934F935F936F937F93FC
:1002B0008F939F93AF93BF93EF93FF93E0910001D0
:1002C000F09101010995FF91EF91BF91AF919F913D
:1002D0008F917F916F915F914F913F912F910F90EF
:1002E0000FBE0F901F901895789484B5826084BDDE
:1002F00084B5816084BD85B5826085BD85B581602A
:1003000085BD80916E00816080936E0010928100A7
:100310008091810082608093810080918100816062
:100320008093810080918000816080938000809123
:10033000B10084608093B1008091B00081608093AF
:10034000B00080917A00846080937A0080917A0076
:10035000826080937A0080917A00816080937A0035
:1003600080917A00806880937A001092C100E3E95E
:10037000F0E02491EFE7F0E08491882399F090E099
:10038000880F991FFC01E859FF4FA591B491FC011A
:10039000EE58FF4F859194918FB7F894EC91E22B32
:1003A000EC938FBFE2E9F0E02491EEE7F0E0849176
:1003B0008823C1F090E0880F991FFC01E859FF4F96
:1003C000C591D491FC01EE58FF4FA591B4919FB710
:1003D000F8948881E22FE0958E2388838C91E8231E
:1003E000EC939FBF84EC90E0909301018093000117
:1003F00080916900836080936900E89A10E4CC24BE
:10040000CA9483E0D82EE12CF12CC0E0D0E080E04B
:100410000E947B0010937C0080917A00806480931E
:100420007A0080917A0086FDFCCF80917800A091BF
:100430007900BA2FA82F26E037E20E948002A70198
:1004400096010E943002265F3F4F4F4F5F4F30931F
:100450000E0120930D012097D1F20E940000D7CF0A
:10046000052E97FB1EF400940E94470257FD07D00B
:100470000E944F0207FC03D04EF40C9447025095A3
:100480004095309521953F4F4F4F5F4F0895909580
:100490008095709561957F4F8F4F9F4F0895A1E292
:1004A0001A2EAA1BBB1BFD010DC0AA1FBB1FEE1FEE
:1004B000FF1FA217B307E407F50720F0A21BB30B39
:1004C000E40BF50B661F771F881F991F1A9469F7B5
:1004D00060957095809590959B01AC01BD01CF0111
:1004E0000895A29FB001B39FC001A39F700D811D0D
:1004F0001124911DB29F700D811D1124911D08952D
:100500000E947102B7FF0895821B930B0895F8941F
:06051000FFCFC300C30091
:107E0000112484B714BE81FFF0D085E080938100F7
:107E100082E08093C00088E18093C10086E0809377
:107E2000C20080E18093C4008EE0C9D0259A86E02C
:107E300020E33CEF91E0309385002093840096BBD3
:107E4000B09BFECF1D9AA8958150A9F7CC24DD24C4
:107E500088248394B5E0AB2EA1E19A2EF3E0BF2EE7
:107E6000A2D0813461F49FD0082FAFD0023811F036
:107E7000013811F484E001C083E08DD089C08234E0
:107E800011F484E103C0853419F485E0A6D080C0E4
:107E9000853579F488D0E82EFF2485D0082F10E0AE
:107EA000102F00270E291F29000F111F8ED06801E7
:107EB0006FC0863521F484E090D080E0DECF843638
:107EC00009F040C070D06FD0082F6DD080E0C81688
:107ED00080E7D80618F4F601B7BEE895C0E0D1E017
:107EE00062D089930C17E1F7F0E0CF16F0E7DF06D8
:107EF00018F0F601B7BEE89568D007B600FCFDCFD4
:107F0000A601A0E0B1E02C9130E011968C91119780
:107F100090E0982F8827822B932B1296FA010C0160
:107F200087BEE89511244E5F5F4FF1E0A038BF0790
:107F300051F7F601A7BEE89507B600FCFDCF97BE46
:107F4000E89526C08437B1F42ED02DD0F82E2BD052
:107F50003CD0F601EF2C8F010F5F1F4F84911BD097
:107F6000EA94F801C1F70894C11CD11CFA94CF0C13
:107F7000D11C0EC0853739F428D08EE10CD085E9AC
:107F80000AD08FE07ACF813511F488E018D01DD067
:107F900080E101D065CF982F8091C00085FFFCCF94
:107FA0009093C60008958091C00087FFFCCF809118
:107FB000C00084FD01C0A8958091C6000895E0E648
:107FC000F0E098E1908380830895EDDF803219F02E
:107FD00088E0F5DFFFCF84E1DECF1F93182FE3DFCA
:107FE0001150E9F7F2DF1F91089580E0E8DFEE27F6
:047FF000FF270994CA
:027FFE00040479
:00000001FF
