:100000000C9463000C948B000C948B000C944605AC
:100010000C9446050C9446050C948B000C948B00B4
:100020000C948B000C948B000C948B000C948B0024
:100030000C948B000C948B000C948B000C948B0014
:100040000C94FC040C948B000C94CA040C94A4042F
:100050000C948B000C948B000C948B000C948B00F4
:100060000C94BE050C948B000000000800020100F7
:100070000003040700000000000000000000000072
:10008000240027002A000000000023002600290089
:1000900000000000250028002B00040404040404D0
:1000A0000404020202020202030303030303010227
:1000B00004081020408001020408102001020408F6
:1000C0001020DD06DA0911241FBECFEFD8E0DEBF15
:1000D000CDBF11E0A0E0B1E0EEEAF4E102C005908E
:1000E0000D92A235B107D9F723E0A2E5B1E001C036
:1000F0001D92A832B207E1F710E0C2E6D0E004C0DA
:100100002197FE010E94440AC136D107C9F70E9417
:10011000B1070C944A0A0C94000008950895AF9218
:10012000BF92CF92DF92EF92FF920F931F93CF93E4
:10013000DF936C017B018B01040F151FEB015E0146
:10014000AE18BF08C017D10759F06991D601ED91DB
:10015000FC910190F081E02DC6010995892B79F77A
:10016000C501DF91CF911F910F91FF90EF90DF902C
:10017000CF90BF90AF900895FC01538D448D252FF3
:1001800030E0842F90E0821B930B541710F0CF9631
:10019000089501970895FC01918D828D981761F063
:1001A000A28DAE0FBF2FB11D5D968C91928D9F5F7A
:1001B0009F73928F90E008958FEF9FEF0895FC0159
:1001C000918D828D981731F0828DE80FF11D858D0C
:1001D00090E008958FEF9FEF0895FC01918D228D9F
:1001E000892F90E0805C9F4F821B91098F73992724
:1001F000089584E592E00E94ED0021E0892B09F446
:1002000020E0822F089580E090E0892B29F00E9461
:10021000F90081110C9400000895FC01A48DA80F31
:10022000B92FB11DA35ABF4F2C91848D90E0019638
:100230008F739927848FA689B7892C93A089B18958
:100240008C91837080648C93938D848D981306C0F9
:100250000288F389E02D80818F7D80830895EF925D
:10026000FF920F931F93CF93DF93EC0181E0888F70
:100270009B8D8C8D98131AC0E889F989808185FF40
:1002800015C09FB7F894EE89FF896083E889F989E2
:1002900080818370806480839FBF81E090E0DF91E4
:1002A000CF911F910F91FF90EF900895F62E0B8D37
:1002B00010E00F5F1F4F0F731127E02E8C8D8E11F2
:1002C0000CC00FB607FCFACFE889F989808185FF59
:1002D000F5CFCE010E940D01F1CFEB8DEC0FFD2F7C
:1002E000F11DE35AFF4FF0829FB7F8940B8FEA8914
:1002F000FB8980818062CFCFCF93DF93EC01888D23
:100300008823B9F0AA89BB89E889F9898C9185FD90
:1003100003C0808186FD0DC00FB607FCF7CF8C911E
:1003200085FFF2CF808185FFEDCFCE010E940D01C8
:10033000E9CFDF91CF91089590E0FC01E859FF4F9C
:100340002491FC01E255FF4F3491FC01E656FF4F2A
:10035000E491EE23C9F0222339F0233001F1A8F40F
:10036000213019F1223029F1F0E0EE0FFF1FE057A4
:10037000FF4FA591B4918FB7F894EC91611126C00D
:1003800030953E233C938FBF08952730A9F0283045
:10039000C9F0243049F7809180008F7D03C080919F
:1003A00080008F7780938000DFCF84B58F7784BD06
:1003B000DBCF84B58F7DFBCF8091B0008F778093AA
:1003C000B000D2CF8091B0008F7DF9CF3E2BDACF35
:1003D0001092530210925202109251021092500247
:1003E00010924F0281E080934E0210924D0261E024
:1003F00082E10E949C0161E083E10E949C01E9EBA3
:10040000F0E080818E7F808380818D7F808388E48F
:100410008093B80085E48093BC008DE890E09093D1
:100420004C0280934B028EE890E090934A028093B6
:1004300049020895CF93DF9390E0FC01E255FF4F0E
:10044000249186569F4FFC0184918823D1F090E03F
:10045000880F991FFC01E458FF4FA591B491FC014E
:10046000E057FF4FC591D49161110EC09FB7F8942A
:100470008C91E22FE0958E238C932881E223E883F0
:100480009FBFDF91CF9108958FB7F894EC91E22B45
:10049000EC938FBFF6CF3FB7F894809140029091D4
:1004A0004102A0914202B091430226B5A89B05C02B
:1004B0002F3F19F00196A11DB11D3FBFBA2FA92FE3
:1004C000982F8827BC01CD01620F711D811D911DE0
:1004D00042E0660F771F881F991F4A95D1F708954C
:1004E0008F929F92AF92BF92CF92DF92EF92FF9244
:1004F0004B015C010E944B026B017C010E944B028C
:100500006C197D098E099F09683E7340810591052C
:10051000A8F321E0821A9108A108B10888EEC80E5C
:1005200083E0D81EE11CF11C81149104A104B104E4
:1005300029F7FF90EF90DF90CF90BF90AF909F9002
:100540008F9008950895209147023091480228170E
:10055000390771F49091450280914602981741F055
:10056000E0914502F0E0EB54FE4F808190E0089569
:100570008FEF9FEF08950895EF92FF920F931F93CF
:10058000CF93DF93DC015C96ED90FC905D97E114D6
:10059000F10479F481E090E013969C938E93129786
:1005A00090E080E0DF91CF911F910F91FF90EF904D
:1005B00008955196ED91FC91529750968C915097D9
:1005C000982F90950FB75E962C915E97122F127010
:1005D00021FD6095F8942081112319F1282B2083A7
:1005E000E7012197F1F728E0462F50E0308160FFC6
:1005F0001AC0382B3083E7012197F1F7BA017595BE
:100600006795215089F7112381F0808189238083A8
:100610000FBF5C968D919C910197F1F781E090E07E
:10062000C1CF2923DCCF3923E5CF9081892BEFCFB0
:1006300020914702309148022817390771F48091C0
:1006400046022091450290E0805C9F4F821B9109F9
:1006500060E470E00E941C0A089590E080E0089534
:10066000209147023091480228173907B9F4909138
:10067000450280914602981789F0E0914502F0E02A
:10068000EB54FE4F80812091450230E02F5F3F4FB9
:100690002F7333272093450290E008958FEF9FEF4B
:1006A000089585ED8093BC008091BC0084FDFCCF53
:1006B00010924F02089520919201260F3327331F85
:1006C00021323105ECF420914F02FC0190E080E0F2
:1006D000243069F082E00895A09192012191AC014B
:1006E0004E585E4FA40FB52FB11D2C93019686175F
:1006F00098F380919201680F6093920180E00895D1
:1007000081E00895E091530280915202E81730F49D
:10071000F0E0EE5AFE4F808190E008958FEF9FEF5A
:10072000089590915302809152022FEF3FEF981756
:1007300048F4E92FF0E0EE5AFE4F208130E09F5F51
:1007400090935302C90108958091520290915302EF
:10075000891B990B0895CF92DF92EF92FF920F932E
:100760001F93CF93DF937C01CB018A012091190263
:10077000222389F0EB016B01C40ED51ECC15DD05DB
:1007800069F06991D701ED91FC910190F081E02D24
:10079000C7010995F3CF642F0E945B03C801DF9165
:1007A000CF911F910F91FF90EF90DF90CF90089520
:1007B000CF93DF931F92CDB7DEB7698320911902E3
:1007C0002223F9F020915002203258F021E030E04D
:1007D000FC013383228390E080E00F90DF91CF9182
:1007E000089580915102E82FF0E0E65EFD4F998177
:1007F00090838F5F809351028093500281E090E05C
:10080000ECCF61E0CE0101960E945B03F7CFCF935E
:10081000FC01C48121E020931902C0933A02109296
:100820005102109250028385682B81EF92E00E9462
:10083000D80390915002913208F03FC080914F024E
:100840008111FCCF82E080934F0281E080934E02C1
:100850008FEF809318021092170290931602AAE16C
:10086000B2E0E6EFF1E080E098132FC01092F501BE
:100870008091F501CC0FC82BC093F50180914D02FA
:10088000813039F510924D028091F5018093BB00C3
:100890008091BC0083FDF8CF85EC8093BC008091F3
:1008A0004F028230E1F3809118028F3F31F0809146
:1008B0001802803211F080911802109251021092A9
:1008C000500210921902CF9108952D9121938F5FBC
:1008D000CBCF85EEE2CF90E080E008950F931F9399
:1008E000CF938C01C62F0E9407046C2F6460C8014F
:1008F0000E9407046C2F6B7FC8010E94070483ECE1
:1009000090E00197F1F7CF911F910F9108950F9308
:100910001F93CF93DF938C01D62FC42F607F642B5E
:100920000E946E0480E1D89FB00111246C2BC80195
:10093000DF91CF911F910F910C946E0441E00E94C2
:10094000870481E090E008951F920F920FB60F92F6
:1009500011242F933F934F935F936F937F938F93C4
:100960009F93AF93BF93EF93FF9384E592E00E9430
:100970000D01FF91EF91BF91AF919F918F917F9169
:100980006F915F914F913F912F910F900FBE0F90FC
:100990001F9018951F920F920FB60F9211242F934C
:1009A0008F939F93EF93FF93E0916402F091650220
:1009B0008081E0916A02F0916B0282FD1BC0908100
:1009C00080916D028F5F8F7320916E02821741F0CC
:1009D000E0916D02F0E0EC5AFD4F958F80936D022F
:1009E000FF91EF919F918F912F910F900FBE0F90DC
:1009F0001F9018958081F4CF1F920F920FB60F921F
:100A000011242F933F938F939F93AF93BF93809124
:100A10003C0290913D02A0913E02B0913F02309184
:100A20003B0223E0230F2D3758F50196A11DB11D80
:100A300020933B0280933C0290933D02A0933E02A0
:100A4000B0933F028091400290914102A0914202F6
:100A5000B09143020196A11DB11D80934002909375
:100A60004102A0934202B0934302BF91AF919F9184
:100A70008F913F912F910F900FBE0F901F9018955F
:100A800026E8230F0296A11DB11DD2CF1F920F920F
:100A90000FB60F9211242F933F934F935F936F9351
:100AA0007F938F939F93AF93BF93EF93FF93E091C7
:100AB0004702F0914802309749F0A685B7858585B1
:100AC000968D91FF14C09C918923A1F4FF91EF9121
:100AD000BF91AF919F918F917F916F915F914F9156
:100AE0003F912F910F900FBE0F901F9018959C91E2
:100AF000892361F7A389B4899C918589809589238D
:100B00008C93868997890197F1F7608D718DA68501
:100B1000B785558538E020E0CB010197F1F7822FAA
:100B200090E095958795282F4C91452309F02068F2
:100B3000315091F7868D81FD20958091460290E09D
:100B400001968F73992730914502381799F0A0913B
:100B50004602B0E0AB54BE4F2C9380934602828D88
:100B6000938D0197F1F7A389B4898C919589892B8D
:100B70008C93ACCF868D8160868FF1CF1F920F92C0
:100B80000FB60F9211242F933F934F935F936F9360
:100B90007F938F939F93AF93BF93EF93FF93809136
:100BA000B900887F803609F44AC0F0F5883209F42C
:100BB000A7C018F5803109F49BC0B8F4882309F464
:100BC000F9C0883009F494C0FF91EF91BF91AF91C3
:100BD0009F918F917F916F915F914F913F912F9155
:100BE0000F900FBE0F901F901895883109F488C0A0
:100BF000803251F78093180214C0803409F49DC0EC
:100C000040F48033B9F38833F9F68093180285EC09
:100C1000B0C0803509F485C0883509F496C08834A1
:100C200099F60E945103D0CF883909F48CC038F569
:100C3000883729F050F4883611F0803729F683E0A0
:100C400080934F021092B40157C0883809F47BC0DA
:100C5000803919F0803809F0B7CF8091B401803223
:100C600008F071C0E091B40181E08E0F8093B4016F
:100C70008091BB00F0E0EC56FE4F80833DC0803B8E
:100C800039F0E0F4803A09F479C0883A09F09CCF51
:100C900084E080934F021092930110929201E091B0
:100CA0004B02F0914C0209958091920181110FC085
:100CB00081E0809392011092720109C0803C09F496
:100CC000A6CF883C09F4A3CF883B09F07DCFE09103
:100CD000930181E08E0F80939301F0E0EE58FE4F78
:100CE00080818093BB00909193018091920129C0F3
:100CF0008091F5018093BB0085EC8093BC0064CFAC
:100D00009091170280911602981758F5E0911702FA
:100D100081E08E0F80931702F0E0EA50FE4F808151
:100D2000E9CFE091170281E08E0F80931702809146
:100D3000BB00F0E0EA50FE4F808390911702809153
:100D400016029817C8F285E8D8CFE091170281E023
:100D50008E0F809317028091BB00F0E0EA50FE4FA7
:100D6000808380914E0281115CCF81E080934D029F
:100D700084EA8093BC0010924F0226CF85EC8093CA
:100D8000BC0010924F028091B401803230F4E091A7
:100D9000B401F0E0EC56FE4F10826091B40170E0B7
:100DA000E0914902F0914A0284E991E0099510929C
:100DB000B4010ACF1092180234CF10925702109249
:100DC000560288EE93E0A0E0B0E080935802909342
:100DD0005902A0935A02B0935B0224E031E03093B1
:100DE00055022093540225EC30E0309361022093A9
:100DF000600224EC30E0309363022093620220EC26
:100E000030E0309365022093640221EC30E03093AF
:100E100067022093660222EC30E03093690220934F
:100E2000680226EC30E030936B0220936A02109245
:100E30006D0210926E0210926F0210927002109268
:100E4000F4021092F3028093F5029093F602A093BD
:100E5000F702B093F80226E131E03093F2022093DA
:100E6000F10210920C0310920B0380930D039093E8
:100E70000E03A0930F03B093100384E391E09093CB
:100E80000A03809309031092200310921F0310920B
:100E90002203109221031092240310922303109234
:100EA000260310922503609127036E7F6D7F609368
:100EB00027036695617081E0682783E00E949C01AA
:100EC00061E083E00E941A02E1EBF0E0E491E0933C
:100ED0001903EDE9F0E0E491F0E0EE0FFF1FE057B9
:100EE000FF4F8591949190931B0380931A0360E0C8
:100EF00082E00E941A028091270381FD04C061E014
:100F000082E00E949C0182E080931503E0EBF0E018
:100F1000E491E0931603ECE9F0E0E491F0E0EE0FE9
:100F2000FF1FEA57FF4F2591349130931803209308
:100F30001703109200031092FF0228E231E0309371
:100F4000FE022093FD0297E29093010390E19093BB
:100F50000503809306031092070388E0809308033B
:100F60000895789484B5826084BD84B5816084BD21
:100F700085B5826085BD85B5816085BD80916E0037
:100F8000816080936E001092810080918100826068
:100F900080938100809181008160809381008091A5
:100FA00080008160809380008091B1008460809394
:100FB000B1008091B00081608093B00080917A0090
:100FC000846080937A0080917A00826080937A00B6
:100FD00080917A00816080937A0080917A008068A5
:100FE00080937A001092C100CFB7F89480914402A8
:100FF000811127C0E4EAF0E08491E8EBF0E09491FD
:10100000E82FF0E0EE0FFF1FE458FF4FA591B491D9
:10101000EC91E92321F461E08AE00E949C0161E007
:101020008AE00E941A028CB580618CBD8CB5806408
:101030008CBD61E08DE00E941A0261E08BE00E94AD
:101040001A02809144028F5F80934402CFBF0E94B6
:10105000E801E0916402F091650282E08083E09112
:101060006002F09161021082E0916202F0916302ED
:101070008FEC808310926C02E0916802F09169021B
:1010800086E08083E0916602F09167028081806152
:101090008083E0916602F09167028081886080839E
:1010A000E0916602F0916702808180688083E09120
:1010B0006602F091670280818F7D80831092240305
:1010C0001092230310922203109221031092200306
:1010D00010921F038DE991E09093260380932503DE
:1010E00090911503963108F047C02DEB30E0309316
:1010F000200320931F032BE931E030932203209338
:1011000021032CE231E03093240320932303209128
:10111000680084E0983048F031E09E3008F430E018
:1011200081E001C0880F3A95EAF7822B809368002E
:101130002DE630E0983050F02BE630E09E3030F075
:101140002CE630E0963110F030E020E030931D03C3
:1011500020931C03292F30E0983008F01EC181E055
:1011600001C0880F9A95EAF780931E0380912503AA
:10117000909126030197F1F7809123039091240326
:10118000892B49F1E0914702F091480283E0E93070
:10119000F80709F1309739F0A389B4899C918589C2
:1011A000809589238C93809127038E7F80932703DA
:1011B000109246021092450289E093E09093480213
:1011C00080934702E0911C03F0911D038081909170
:1011D0001E03892B80830E94E801109202038091F4
:1011E0000603823018F098E0909302039091070371
:1011F000992339F0813029F480910203846080932F
:10120000020362E370E080E090E00E94700260916F
:1012100008038DEF92E00E94070468EE73E080E01F
:1012200090E00E94700260E38DEF92E00E946E04F5
:10123000CBE4D6E4CE010197F1F760E38DEF92E0C5
:101240000E946E042197F1F760E38DEF92E00E9417
:101250006E0483E592E00197F1F760E28DEF92E092
:101260000E946E0460910203606240E08DEF92E0A4
:101270000E94870484E08093030340E06CE08DEFDC
:1012800092E00E94870440E061E08DEF92E00E94CE
:101290008704CBE3DFE1CE010197F1F782E0809391
:1012A000040340E066E08DEF92E00E94870440E096
:1012B00062E08DEF92E00E948704CE010197F1F782
:1012C00018E01093080360E08DEF92E00E9407049D
:1012D00040E061E08DEF92E00E9487042197F1F7F2
:1012E0001093080360E08DEF92E00E94070461E034
:1012F0008DE00E941A0200E010E084E592E00E9476
:10130000ED0018161906ECF584E592E00E94CB007A
:10131000C82F082E000C990B0E94F609019751F472
:1013200061E08DE00E949C0168EE73E080E090E057
:101330000E9470024CE050E062E471E084E592E0CB
:101340000E948F006C2F84E592E00E942F0142E002
:1013500050E06FE471E084E592E00E948F0065E068
:1013600070E080E090E00E94700240E061E88DEF64
:1013700092E00E94870441E06C2F8DEF92E00E9482
:1013800087040115110509F4B8CF0E94F9008823DC
:1013900009F4B3CF0E940000B0CF9E3040F4285033
:1013A000310981E001C0880F2A95EAF7DDCE2E5081
:1013B0003109F7CF84E391E090930A038093090306
:1013C00080914702909148028950934071F4E091D6
:1013D0001C03F0911D03908180911E038095892349
:1013E000808310924802109247020895FC018827DA
:1013F0009927E89421912032E9F3293010F02E301A
:10140000C8F32B3241F02D3239F4689404C00E94A5
:10141000140A820F911D219120532A30C0F31EF42B
:10142000909581959F4F08957AE0979F902D879F83
:10143000802D910D1124089597FB072E16F400942A
:1014400007D077FD09D00E94300A07FC05D03EF492
:10145000909581959F4F0895709561957F4F089560
:10146000AA1BBB1B51E107C0AA1FBB1FA617B707CA
:1014700010F0A61BB70B881F991F5A95A9F78095E6
:101480009095BC01CD010895EE0FFF1F0590F491DA
:10149000E02D099410E0C2E6D0E004C0FE010E94F5
:0E14A000440A2196C336D107C9F7F894FFCF4E
:1014AE00000000002F018F00BC007C01ED00CB007E
:1014BE00DF0000000000D803AB036B04BB02A403E3
:1014CE0091038203000000009E048F006B04A202B1
:1014DE0000000000BC028F006B04BB021803300337
:1014EE00A302492072656365697665643A20000D32
:0214FE000A00E2
:00000001FF
