:100000000C946C000C9494000C9494000C94940048
:100010000C9494000C9494000C9494000C94940010
:100020000C9494000C9494000C9494000C94940000
:100030000C9494000C9494000C9494000C949400F0
:100040000C940A020C9494000C947A020C945402BE
:100050000C9494000C9494000C9494000C949400D0
:100060000C9494000C94940005A84CCDB2D44EB9D5
:100070003836A9020C50B9918688083CA6AAAA2A4B
:10008000BE000000803F00000008000201000003E5
:100090000407000000000000000000000000250030
:1000A00028002B0000000000240027002A00040480
:1000B0000404040404040202020202020303030310
:1000C00003030102040810204080010204081020EC
:1000D000010204081020D50311241FBECFEFD8E081
:1000E000DEBFCDBF11E0A0E0B1E0EAE3FCE002C07A
:1000F00005900D92A231B107D9F721E0A2E1B1E05C
:1001000001C01D92AE3BB207E1F710E0CCE6D0E0B3
:1001100004C02197FE010E941506CB36D107C9F70E
:100120000E94AC020C941B060C94000090E0FC01B1
:10013000EE53FF4F249182559F4FFC0184918823F9
:1001400099F090E0880F991FFC01EC55FF4FA591A5
:10015000B491FC01E656FF4F859194918FB7F894C6
:10016000EC91E22BEC938FBF0895E0E9F0E024914D
:10017000ECECF0E09491E8EBF0E0E491EE23C9F0D0
:10018000222339F0233001F1A8F4213019F1223073
:1001900029F1F0E0EE0FFF1FE656FF4FA591B49155
:1001A0002FB7F894EC91811126C090959E239C93D3
:1001B0002FBF08952730A9F02830C9F0243049F71F
:1001C000209180002F7D03C0209180002F77209305
:1001D0008000DFCF24B52F7724BDDBCF24B52F7D62
:1001E000FBCF2091B0002F772093B000D2CF209189
:1001F000B0002F7DF9CF9E2BDACFAF92BF92CF9276
:10020000DF92EF92FF920F931F93CF93DF936C01D6
:100210007B018B01040F151FEB015E01AE18BF08B7
:10022000C017D10759F06991D601ED91FC91019069
:10023000F081E02DC6010995892B79F7C501DF9181
:10024000CF911F910F91FF90EF90DF90CF90BF90D3
:10025000AF900895FC01538D448D252F30E0842FFD
:1002600090E0821B930B541710F0CF9608950197DE
:100270000895FC01918D828D981761F0A28DAE0FCB
:10028000BF2FB11D5D968C91928D9F5F9F73928F52
:1002900090E008958FEF9FEF0895FC01918D828D7E
:1002A000981731F0828DE80FF11D858D90E008954B
:1002B0008FEF9FEF0895FC01918D228D892F90E0A3
:1002C000805C9F4F821B91098F739927089582E16B
:1002D00091E00E945B0121E0892B09F420E0822F4C
:1002E000089580E090E0892B29F00E946701811138
:1002F0000C9400000895FC01A48DA80FB92FB11D26
:10030000A35ABF4F2C91848D90E001968F7399274B
:10031000848FA689B7892C93A089B1898C91837029
:1003200080648C93938D848D981306C00288F38922
:10033000E02D80818F7D80830895EF92FF920F934F
:100340001F93CF93DF93EC0181E0888F9B8D8C8D81
:1003500098131AC0E889F989808185FF15C09FB775
:10036000F894EE89FF896083E889F9898081837038
:10037000806480839FBF81E090E0DF91CF911F91E7
:100380000F91FF90EF900895F62E0B8D10E00F5F08
:100390001F4F0F731127E02E8C8D8E110CC00FB6DE
:1003A00007FCFACFE889F989808185FFF5CFCE0176
:1003B0000E947B01F1CFEB8DEC0FFD2FF11DE35A75
:1003C000FF4FF0829FB7F8940B8FEA89FB898081F9
:1003D0008062CFCFCF93DF93EC01888D8823B9F073
:1003E000AA89BB89E889F9898C9185FD03C0808140
:1003F00086FD0DC00FB607FCF7CF8C9185FFF2CFBD
:10040000808185FFEDCFCE010E947B01E9CFDF9196
:10041000CF9108951F920F920FB60F9211242F9330
:100420003F938F939F93AF93BF938091BA01909125
:10043000BB01A091BC01B091BD013091B90123E095
:10044000230F2D3758F50196A11DB11D2093B90139
:100450008093BA019093BB01A093BC01B093BD01FE
:100460008091B5019091B601A091B701B091B8010A
:100470000196A11DB11D8093B5019093B601A09383
:10048000B701B093B801BF91AF919F918F913F9108
:100490002F910F900FBE0F901F90189526E8230FF5
:1004A0000296A11DB11DD2CF1F920F920FB60F92CF
:1004B00011242F933F934F935F936F937F938F9369
:1004C0009F93AF93BF93EF93FF9382E191E00E94DC
:1004D0007B01FF91EF91BF91AF919F918F917F91A0
:1004E0006F915F914F913F912F910F900FBE0F90A1
:1004F0001F9018951F920F920FB60F9211242F93F1
:100500008F939F93EF93FF93E0912201F09123014A
:100510008081E0912801F091290182FD1BC090812A
:1005200080912B018F5F8F7320912C01821741F0F6
:10053000E0912B01F0E0EE5EFE4F958F80932B0152
:10054000FF91EF919F918F912F910F900FBE0F9080
:100550001F9018958081F4CF789484B5826084BD13
:1005600084B5816084BD85B5826085BD85B58160B7
:1005700085BD80916E00816080936E001092810035
:1005800080918100826080938100809181008160F0
:1005900080938100809180008160809380008091B1
:1005A000B10084608093B1008091B000816080933D
:1005B000B00080917A00846080937A0080917A0004
:1005C000826080937A0080917A00816080937A00C3
:1005D00080917A00806880937A001092C100E09147
:1005E0002201F091230182E08083E0911E01F091CD
:1005F0001F011082E0912001F09121018FEC808396
:1006000010922A01E0912601F091270186E0808373
:10061000E0912401F0912501808180618083E09147
:100620002401F0912501808188608083E09124017C
:10063000F0912501808180688083E0912401F09110
:10064000250180818F7D80838AE00E9496008BE067
:100650000E9496008091B00080688093B0008091E5
:10066000B0008F7B8093B0008091B0008160809358
:10067000B0008091B00082608093B0008091B100A2
:10068000877F8093B10080E18093B3008091B100B7
:1006900081608093B1008091B1008D7F8093B10023
:1006A0008091B1008B7F8093B10000E010E0B99B96
:1006B000FECFB99A2DEB37E346E857E36091B101DD
:1006C0007091B2018091B3019091B4010E94030432
:1006D0006093B1017093B2018093B3019093B40120
:1006E0002BE734E14DE953E40E94F4040E946105D4
:1006F0006B017C0120E030E0A9010E94EF04181694
:100700000CF040C020E030E04FE753E4C701B601F1
:100710000E94F4040E946F046093B3002AE037ED56
:1007200043E25CE36091B1017091B2018091B30149
:100730009091B4010E94EF0487FD08C01092B101AE
:100740001092B2011092B3011092B401C091AF01A6
:10075000D091B0012196D093B001C093AF01C237C0
:1007600082E0D807BCF481E00E94B50001151105B4
:1007700009F49DCF0E946701882309F498CF0E9455
:10078000000095CFC701B601905820E030E04FE758
:1007900053E4BECF80E00E94B500C23ED44034F3A3
:1007A0001092B0011092AF01E1CFE2E1F1E01382CB
:1007B000128288EE93E0A0E0B0E084839583A68364
:1007C000B78384E091E09183808385EC90E0958706
:1007D000848784EC90E09787868780EC90E0918B0B
:1007E000808B81EC90E0938B828B82EC90E0958BF8
:1007F000848B86EC90E0978B868B118E128E138EF5
:10080000148E08955058BB27AA270E941A040C94EE
:10081000B5040E94A70438F00E94AE0420F039F419
:100820009F3F19F426F40C94A4040EF4E095E7FB22
:100830000C949E04E92F0E94C60458F3BA1762076D
:1008400073078407950720F079F4A6F50C94E80463
:100850000EF4E0950B2EBA2FA02D0B01B9019001DB
:100860000C01CA01A0011124FF27591B99F0593F1F
:1008700050F4503E68F11A16F040A22F232F342F67
:100880004427585FF3CF469537952795A795F040B5
:100890005395C9F77EF41F16BA0B620B730B840BCA
:1008A000BAF09150A1F0FF0FBB1F661F771F881F82
:1008B000C2F70EC0BA0F621F731F841F48F48795DA
:1008C00077956795B795F7959E3F08F0B0CF9395CC
:1008D000880F08F09927EE0F9795879508950E9445
:1008E000CE0488F09F5798F0B92F9927B751B0F0F0
:1008F000E1F0660F771F881F991F1AF0BA95C9F7A4
:1009000014C0B13091F00E94E804B1E008950C9455
:10091000E804672F782F8827B85F39F0B93FCCF308
:10092000869577956795B395D9F73EF49095809520
:10093000709561957F4F8F4F9F4F089597F99F67EF
:1009400080E870E060E008959FEF80EC0895002457
:100950000A941616170618060906089500240A9424
:1009600012161306140605060895092E0394000CAA
:1009700011F4882352F0BB0F40F4BF2B11F460FF39
:1009800004C06F5F7F4F8F4F9F4F089557FD905862
:10099000440F551F59F05F3F71F04795880F97FB43
:1009A000991F61F09F3F79F08795089512161306FD
:1009B0001406551FF2CF4695F1DF08C0161617062C
:1009C0001806991FF1CF8695710561050894089561
:1009D000E894BB2766277727CB0197F908950E94F3
:1009E000690508F48FEF08950E9407050C94B5047B
:1009F0000E94A70438F00E94AE0420F0952311F065
:100A00000C949E040C94A40411240C94E9040E94F8
:100A1000C60470F3959FC1F3950F50E0551F629F78
:100A2000F001729FBB27F00DB11D639FAA27F00D47
:100A3000B11DAA1F649F6627B00DA11D661F829F6E
:100A40002227B00DA11D621F739FB00DA11D621F53
:100A5000839FA00D611D221F749F3327A00D611D70
:100A6000231F849F600D211D822F762F6A2F112452
:100A70009F5750409AF0F1F088234AF0EE0FFF1F85
:100A8000BB1F661F771F881F91505040A9F79E3FDC
:100A9000510580F00C949E040C94E9045F3FE4F34C
:100AA000983ED4F3869577956795B795F795E79532
:100AB0009F5FC1F7FE2B880F911D9695879597F93B
:100AC00008959F930E948F050F9007FCEE5F0C9492
:100AD000B805990F0008550FAA0BE0E8FEEF1616AF
:100AE0001706E807F907C0F012161306E407F50722
:100AF00098F0621B730B840B950B39F40A2661F096
:100B0000232B242B252B21F408950A2609F4A14038
:100B1000A6958FEF811D811D08950C94A4040E9459
:100B2000CE04D8F3E894E0E0BB279F57F0F02AED1D
:100B30003FE049EC06C0EE0FBB0F661F771F881F12
:100B400028F0B23A62077307840728F0B25A620BA2
:100B5000730B840BE3959A9572F7803830F49A956D
:100B6000BB0F661F771F881FD2F790480C94CE05E5
:100B7000EF93E0FF07C0A2EA2AED3FE049EC5FEB0C
:100B80000E941A040E94B5040F90039401FC90582F
:100B9000E8E6F0E00C94DA059F3F31F0915020F444
:100BA000879577956795B795880F911D9695879549
:100BB00097F908959F938F937F936F93FF93EF938C
:100BC0009B01AC010E94F404EF91FF910E94EE059D
:100BD0002F913F914F915F910C94F404DF93CF9349
:100BE0001F930F93FF92EF92DF927B018C01689429
:100BF00006C0DA2EEF010E940705FE01E894A591D8
:100C00002591359145915591A6F3EF010E941A0463
:100C1000FE019701A801DA9469F7DF90EF90FF9049
:100C20000F911F91CF91DF910895EE0FFF1F059057
:0A0C3000F491E02D0994F894FFCF31
:100C3A00000000009D01FD002A01EA015B01390163
:020C4A004D015A
:00000001FF
